:10000000C8200020C1120000BD120000BD12000077
:1000100000000000000000000000000000000000E0
:10002000000000000000000000000000BD12000001
:100030000000000000000000BD120000BD12000022
:10004000BD120000BD120000BD120000BD12000074
:10005000BD120000BD120000BD120000BD12000064
:10006000BD12000075040000850400009504000026
:10007000A5040000B5040000C5040000BD12000086
:10008000BD120000BD120000BD120000BD12000034
:10009000BD1200000000000000000000BD120000C2
:1000A000BD120000BD120000BD120000BD12000014
:1000B0000000000010B5064C2378002B07D1054B3B
:1000C000002B02D0044800E000BF0123237010BDC4
:1000D0000800002000000000F4160000084B10B5D6
:1000E000002B03D00749084800E000BF0748036819
:1000F000002B00D110BD064B002BFBD09847F9E731
:10010000000000000C000020F4160000F4160000AF
:10011000000000000C4B1B68002B06D1EFF310838E
:10012000002B07D00022094B1A70074A13680133CD
:100130001360704772B6BFF35F8F0022044B1A70D2
:100140000132024B1A70F0E7240000202800002042
:1001500000000020084B1A68013A1A601B68002B47
:1001600009D1064B1B78002B05D00122044B1A70D5
:10017000BFF35F8F62B67047240000202800002084
:1001800000000020F0B583B001AC012565700027A8
:10019000A770257021001720064EB0478022120458
:1001A000054B9A612770657021003720B04703B076
:1001B000F0BDC046BD0100000044004100B583B061
:1001C00001AB80221A700A785A704A789A708A783D
:1001D000DA701900014B984703B000BD5D120000B2
:1001E00010B5490840230024814202D2180010BDF6
:1001F0001C00091A631C9BB28842F9D94023FF2CCA
:10020000F4D814800023F1E710B582B004000E4B3F
:100210001B78002B07D0002905D10B4B5B7883425C
:1002200010D01D200CE001A90C701320074B98473B
:100230001320074B9847044B5C7001221A70002072
:1002400002B010BD0020FBE72C000020651100006B
:10025000D9100000404B984231D00AD93F4B984208
:100260004DD03F4B98425AD03E4B984237D0002059
:1002700070473D4B98420CD03C4B9842F7D1012936
:1002800017D000295DD0022915D0032915D00020F0
:10029000EEE7012907D0002951D0022905D0032912
:1002A00005D00020E4E73248E2E73248E0E7324890
:1002B000DEE73248DCE73248DAE73248D8E701299E
:1002C00007D000293FD0022905D0032905D00020FE
:1002D000CEE72D48CCE72D48CAE72D48C8E70129CD
:1002E00007D0002931D0022905D0032905D00020EC
:1002F000BEE72848BCE72848BAE72848B8E70129FC
:1003000007D0002923D0022905D0032905D00020D9
:10031000AEE72348ACE72348AAE72348A8E701292A
:1003200007D0002915D0022905D0032905D00020C7
:100330009EE71E489CE71E489AE71E4898E71E481D
:1003400096E7032094E71D4892E71D4890E71D4873
:100350008EE71D488CE7C04600100042001800429E
:10036000001C00420014004200080042000C004241
:10037000030005000300060003000700030001005E
:1003800003001E0003001F000300090003000A0011
:1003900003000B0003001100030012000300130010
:1003A00003000D0003000E0003000F000300170000
:1003B00003001800030019000300040003000800F4
:1003C0000300100003000C000300160030B587B0D6
:1003D0000B4B6A4632CB32C232CB32C2009B8342D5
:1003E0000BD001239A0069465258824206D001334D
:1003F000062BF7D1002007B030BD0023D8B2FAE7B2
:100400007416000070470000F0B50A4B1B78002BF3
:100410000CD1094F094E0A4D0024DE515A191460BF
:100420000433182BF9D10122024B1A708000024BC1
:10043000C150F0BD2E000020300000200504000057
:100440006400002000B583B009236A4613700133AD
:100450005370013393700133D3700133137101333F
:100460005371034B98476B46185603B000BDC04606
:10047000CD03000010B5024B1B680020984710BD4B
:100480003000002010B5024B5B680120984710BD7A
:100490003000002010B5024B9B680220984710BD29
:1004A0003000002010B5024BDB680320984710BDD8
:1004B0003000002010B5024B1B690420984710BD86
:1004C0003000002010B5024B5B690520984710BD35
:1004D00030000020F0B58BB005000C00160029603C
:1004E0000B681C209B0701D50BB0F0BD0B681738BB
:1004F000DB07F9D408006F4B98476F4A116A871CD5
:100500000123BB400B43136209A92427F35D0B7041
:100510001430C3B201931800684B98470198684B98
:100520009847F05D0021674B98473378012B3FD007
:100530003378002B03D123680822134323602B0058
:100540000C3329002831002204C38B42FCD1002344
:10055000EB62AB620024AB862B863633EC5401335E
:10056000EC540133EC54353B6B722C712868514BC1
:10057000984707005449554B9847BF00544BFD50CE
:100580002F6804AB80221A705C707F3A9A70DC701E
:100590003378002B02D1002204AB9A70B36A059322
:1005A000F36A0693336B0793736B089300240BE095
:1005B00023680C2213432360BAE73800454B984761
:1005C0000AE00134042C10D0E1B2A30002AA0C20EE
:1005D0001218D0580028F0D0431CF2D004A908709B
:1005E000000CC0B23C4B9847EBE733786B71337C1F
:1005F000AB71B37CEB71337D2B72002202ABDA80DE
:100600003378012B12D03378002B26D1B069B28B0E
:100610007B6AF17F0904B47F214319437962202367
:10062000F35C002B1BD040231A4318E02868214BB1
:1006300098471430C0B2294B9847010002AB9A1D6D
:10064000B069274B984703001720002B00D04BE7D9
:1006500002AB06331B783B73D5E70022002073689A
:10066000B1680B43F1680B430343317C0A43717C4F
:10067000002903D11B498978890701D580210B43C3
:10068000B17C002902D0802189020A43F17C002933
:1006900002D0802189000A43317D002902D08021C7
:1006A00089010A4339680B433B607B681A437A60CF
:1006B000002019E7CD030000000400406511000090
:1006C000D910000009020000F90800000904000028
:1006D00064000020550200005D120000811100003E
:1006E000E101000000200041F0B5D6464F4680B53C
:1006F00083B08C463825465D333D052E75D01235C6
:10070000002A72D0C4790535002C6ED04479002CB3
:1007100003D10468257EA9070AD4013A94B20026C1
:100720000422022189460127DB05DB0D9A4637E0CA
:1007300002252576F1E701680B7E3B42FCD00B7E5B
:100740003B4209D053468B622DE00B7E4D462B4237
:1007500038D10B7E134245D001680B7E1342FCD08A
:100760000B7E134240D04B8B00250195134202D0E3
:100770004A831E2301938379012B27D08B6ADBB236
:100780000199002937D1751CADB261468B5581792D
:1007900001291FD02E00013CA4B2184B9C421FD04F
:1007A0004379012BC7D04379002BD5D101680B7E4B
:1007B0001342CAD1124B0D7E1542C6D1013B002B0C
:1007C000F9D1C2E702230B7604250EE08B6ADB0524
:1007D000DB0DD5E70236B6B21B0A61464B55DAE7A8
:1007E000019D02E0122500E01025280003B00CBC9A
:1007F00091469A46F0BD019DF7E7C046FFFF000015
:100800001027000010B544791523012C01D01800E1
:1008100010BD047A0023002CF9D1002A58D04B785F
:10082000002B44D003681B7EDB0710D40A78D10963
:100830000023002904D15309DB012E498C4663446F
:100840001F21114001228A409A610523DFE70A78BF
:10085000D4090023002C04D15309DB01254CA44604
:1008600063441F2414400122A2405A6103681A7E87
:10087000D20701D58A789A62C2790023002AC6D1AC
:1008800002680421137E0B42FCD0117E002349072D
:10089000BDD5538B5B0701D5042353838379012B8B
:1008A00002D0936A0023B2E7936A0023AFE70A7885
:1008B000D1090023002904D15309DB010D498C46DD
:1008C00063441F21114001228A405A6100239EE7A0
:1008D0000A78D1090023002904D15309DB01054915
:1008E0008C4663441F21114001228A409A610023F3
:1008F0008DE7C04600440041F8B58000854BC458E0
:1009000026683723E35C3622A75C1F40337EB57D23
:100910001D40EB072ED56379012B25D0002B29D163
:10092000637A002B26D02168E26A1378DBB2501C70
:10093000E062A079012800D169E09BB2DB05DB0D04
:100940008B62A38E013B9BB2A386A38E9BB2002B2E
:1009500010D101333375637A012B0BD1E379002B6E
:1009600008D10233B37505E0637A002B3ED0637A79
:10097000002BD8D16B0711D5738B5B0751D5637AE8
:10098000012B08D01E223823E254353B6372023318
:1009900033753B0741D4B36A04237383AB0715D582
:1009A0006379002B0ED107333375053B3376013362
:1009B00063720023A386238638330022E254FB06A9
:1009C00000D57FE06379012B00D17FE02B0708D5AC
:1009D0006379002B05D1083333753376BB0600D518
:1009E0008AE06DB2002D00DA8AE0F8BD4A4B1B8820
:1009F000B362638E013B9BB26386638E9BB2002B16
:100A000001D1013333756379012BB0D086E750787B
:100A1000000203430232E26290E72000A369984794
:100A2000B9E7637A012B27D023689B6ADB05DB0DCE
:100A3000DAB2A16A0A70A26A511CA162A1790129E5
:100A400033D0238E013B9BB22386238E9BB2002B97
:100A5000A4D100223833E254343B3375637A022B3D
:100A600029D0637A002B00D098E7BB0700D495E724
:100A700020002369984791E723689B6A638E013BB6
:100A80009BB26386638E9BB2002B00D086E7043353
:100A9000337500223433E254353B6372FB0700D4D4
:100AA0007CE72000E368984778E71B0A5370A36A45
:100AB0000133A362C5E77B0700D46FE720006369B9
:100AC00098476BE72000E36998477BE7637A012B3F
:100AD00000D086E7E379002B00D082E7023333753C
:100AE0000133637200223533E254FB0700D46DE713
:100AF0002000E368984769E72000236A984770E779
:100B00008023337533767B0600D46EE7636A20005A
:100B100098476AE7640000207C00002010B5082890
:100B200003D880001C4B1B589F46002032E01B4B13
:100B300018692FE01A4B1B6A9B059B0F1948D84078
:100B400028E0164B586925E0144B1B6800209B07D2
:100B500020D513491022CB681A42FCD00F4B1A68DB
:100B600024231340042B01D00F4813E000200F4B27
:100B700098470A4B9B681B041B0C58430AE0502300
:100B8000074AD35C00205B0704D5044BD86801E01A
:100B90008020000210BDC0468C16000048000020D6
:100BA0000008004000127A00006CDC028111000095
:100BB00070B50C490B6A04788578407801221040A2
:100BC00080014026B34303432A40D201802083435F
:100BD00013430322224012020348034013430B62D3
:100BE00070BDC04600080040FFFCFFFFF0B5DE46C8
:100BF00057464E464546E0B50100264B9B469B8A2C
:100C0000457800784242424191468878CA789446B5
:100C10000A7990464E7B0F7B8C7B8A681E494A611D
:100C200001214A4692009146042293434A461343C7
:100C300042460A40D200904608229343424613435C
:100C400062460A40120194461022934362461343BF
:100C5000084040012022934303430F40BF0140203E
:100C600083433B430E40F60140308343334379389E
:100C700005402D02094803402B4321400903084841
:100C800003400B435A4693823CBC90469946A24689
:100C9000AB46F0BD0008004048000020FFF8FFFF11
:100CA000FFEFFFFF10B5037A9B061B0C42899205EC
:100CB000920D134318494B608379C27913434288DC
:100CC0008488224313434278D20113430B60037894
:100CD000042B11D0202B0ED1037B9B06028A1343D9
:100CE000C28912040D490A4013430B4A93601168EC
:100CF0000B4B0B43136010BD037B9B06028A13430F
:100D0000C289120405490A401343034A93601368D9
:100D100004210B431360EEE7480000200000FF03AE
:100D200024040000082803D88000254B1B589F4648
:100D3000172044E0234A136A02210B431362002068
:100D40003DE0204A936902210B439361002036E085
:100D50001C4A138A02210B43138200202FE0194AF8
:100D6000938A02210B439382002028E016490B68E6
:100D7000022213430B60134B9A8419000E32CB6886
:100D80001A42FCD0104A91680E4BD96252689A629E
:100D900000229A8419001032CB681A42FCD00A4B08
:100DA0001B689BB2074A9384002008E0054944224F
:100DB0008B5C022003438B54002000E0002070472E
:100DC000B01600000008004048000020F0B58FB0C9
:100DD000C222D200474B9A60474A53681E218B4378
:100DE0001A390B435360022201AB1A700024434DA1
:100DF000E0B201A9A8470134252CF9D10AA80023A3
:100E000003708370802212028260C370012202711B
:100E100003738373023242704373394B9847052042
:100E2000384B984733490222CB681A42FCD0314AEA
:100E3000938A80210B43938205AB002100225980C5
:100E400099809A71DA713F3159813B3919705A7022
:100E50002D4B1B689B0E3F2B4AD005A803722B4BD2
:100E60000382072303733833C381294B984704A8AF
:100E700000254570012686700570264B9847062090
:100E8000204FB847244B984701AC029665702572F5
:100E900065720523237021000120204B9847012013
:100EA0001F4B9847267021000020144B98470020C4
:100EB0001C4B98470720B8470E49D022CB681340F7
:100EC000D02BFBD1184A0023137253729372D37242
:100ED00001A901224A604B700B724B7207330B70F1
:100EE00000200E4B984700200D4B98470FB0F0BDE7
:100EF000203BB2E7000800400040004165110000BF
:100F0000ED0B0000250D000024608000B9050000F5
:100F1000A50C0000B10B00002D0F0000510F0000C8
:100F200009100000D910000000040040064A93692F
:100F300008210B4393610122044B1A7019000B78AE
:100F40001342FCD17047C04600040040000C004032
:100F500070B5060004000D782D0205434B78002B78
:100F600002D08023DB021D434B7A002B02D080236A
:100F70001B031D434868012810D9431E184234D171
:100F8000022830D90223002201325B009842FBD8AC
:100F900012023243140080235B031D430B7A002BA3
:100FA00002D080239B031D43134A53785BB2002B6E
:100FB000FBDB124B9847124B1E700F4A53785BB203
:100FC000002BFBDB0C4B9C601A0053785BB2002BB0
:100FD000FBDB094A5368802149020B401D435560E1
:100FE000084B984770BD0022D2E7040234438023A7
:100FF0009B021D43D2E7C046000C004015010000D3
:10100000080C00405501000010B504000B4A53784D
:101010005BB2002BFBDB0A4B98470A4B1C70074A5C
:1010200053785BB2002BFBDB044A516880235B02E0
:101030000B435360044B984710BDC046000C004062
:1010400015010000040C00405501000070B50400BB
:101050001A4A53785BB2002BFBDB194B9847194BAC
:101060001C70164A53785BB2002BFBDB134E706882
:10107000C004C00E144B98470500124B1C707668D4
:10108000F602F60F114B1C700C4A53785BB2002B22
:10109000FBDB0A4B9C682402240C0D4B9847002E66
:1010A00007D1012C07D9210028000A4B98470500D9
:1010B00001E00134E540280070BDC046000C00404E
:1010C00015010000040C00401D0B0000080C00403E
:1010D000550100000515000010B50400064B9847A7
:1010E000064B1C70064A53888021C9010B4353806C
:1010F000044B984710BDC04615010000020C00408B
:10110000000C00405501000010B504000F4B98473B
:101110000F4B1C700F4A53881B05180F53880E493C
:101120000B40538053880D490B405380110080229F
:10113000D2014B881342FCD106494A880302064873
:10114000024013434B80064B984710BD1501000029
:10115000020C0040000C0040FFF0FFFFFFBFFFFF4C
:101160005501000010B50C7824020443024B984747
:10117000A4B2024B5C8010BD09110000000C0040BD
:1011800010B50400064B9847064B1C70064B5C8854
:101190002405240F054B98472000054B984710BDA8
:1011A00015010000020C0040000C00405501000039
:1011B0004D10000030B5D378002B35D11378802B3B
:1011C00029D01B0680246402234354780225AC43B3
:1011D00006D19478002C20D18024A40223434160BE
:1011E0005478013C012C1CD90D042D0CA024E405DD
:1011F0002C431C4384620D0CD02424062C431C4336
:101200008462D478002C22D15B031CD59378012B07
:101210001ED0416117E00023D7E7C024E402234336
:10122000DDE70D4C2340DFE741600C04240CA023D4
:10123000DB05234383620C0CD0231B06234383620C
:10124000D378002B03D15378013B012B02D930BD59
:101250008161F8E78160FAE7FFFFFBFF10B50A0044
:10126000C1090023002904D14309DB0105498C464B
:1012700063441F242040012181401800024B9847FD
:1012800010BDC04600440041B51100007047000089
:1012900010B5054B9847054B9847054B9847054BAC
:1012A0009847054B984710BDCD0D00008501000003
:1012B0008D1200008D1200008D120000FEE700006C
:1012C000F8B52A4A2A4B9A4211D01A00294B9A4261
:1012D0000DD2294A03339B1A9B0801339B0000223D
:1012E000234822498C58845004329A42FAD1234A26
:1012F000234B9A420AD2D34321495B1803218B43E3
:1013000004339B18002102C29342FCD11D4AFF21E5
:101310001D4B8B439360FD3990235B001B4AD150DA
:101320001B4AD3780325AB4302242343D370D378DD
:101330000C27BB4308263343D370164B987B3022CF
:101340009043202210439873997BB943314399739A
:101350009A7BAA4322439A730F4A536880210B4316
:1013600053600E4B98470E4B9847FEE7F41600006B
:1013700000000020080000200400002008000020D9
:10138000C400002000ED00E00000000000700041FB
:101390000050004100480041004000411D1600007F
:1013A000A5140000F0B591B002AC0126267000250E
:1013B00003950495C0239B03059325746574A67457
:1013C000E67425752423E5540C22002108A8274B38
:1013D0009847274BA361A562E56225636563254CA9
:1013E000032323706570A57001A94E708D700E7077
:1013F0000320214B98472378D9090022002904D1E2
:101400005A09D2011D498C4662441F252B400124F4
:1014100021009940916102AA80235B03D360184B9D
:10142000936201235B42D362164B1363164B5363E3
:10143000164B9361C0239B0593600023D374144F14
:1014400014493800144B98473E683000134B9847B6
:101450000540AC40124B1C603A68D369002BFCD1AC
:10146000336802221343336011B0F0BD65160000EB
:10147000A086010084000020BD010000004400415E
:1014800002001400030022000300230020A1070033
:1014900088000020001C0042D50400004504000024
:1014A00000E100E0F8B50C4B98470C4B98470C4E08
:1014B0000C4C32780C4920000C4DA8470C4B1B8873
:1014C0000C4A12880C4920000C4FB8470C4B1A7874
:1014D00005492000A847ECE791120000A513000081
:1014E000060000208800002084000020050800007D
:1014F000040000200200002080000020E906000017
:1015000060000020002243088B4274D303098B4201
:101510005FD3030A8B4244D3030B8B4228D3030CC3
:101520008B420DD3FF22090212BA030C8B4202D365
:101530001212090265D0030B8B4219D300E0090A8D
:10154000C30B8B4201D3CB03C01A5241830B8B4296
:1015500001D38B03C01A5241430B8B4201D34B037F
:10156000C01A5241030B8B4201D30B03C01A5241E4
:10157000C30A8B4201D3CB02C01A5241830A8B4269
:1015800001D38B02C01A5241430A8B4201D34B0252
:10159000C01A5241030A8B4201D30B02C01A5241B6
:1015A000CDD2C3098B4201D3CB01C01A524183096A
:1015B0008B4201D38B01C01A524143098B4201D3A4
:1015C0004B01C01A524103098B4201D30B01C01ACF
:1015D0005241C3088B4201D3CB00C01A5241830849
:1015E0008B4201D38B00C01A524143088B4201D376
:1015F0004B00C01A5241411A00D2014652411046D6
:101600007047FFE701B5002000F006F802BDC046B4
:101610000029F7D076E770477047C04670B50026BE
:101620000C4D0D4C641BA410A64209D1002600F0FD
:1016300051F80A4D0A4C641BA410A64205D170BD96
:10164000B300EB5898470136EEE7B300EB589847E4
:101650000136F2E7E0160000E0160000E016000098
:10166000E416000003008218934200D170471970FD
:101670000133F9E700080042000C0042001000426C
:101680000014004200180042001C00422E0B000013
:101690002A0B00002A0B0000900B0000900B0000AA
:1016A000420B0000340B0000480B00007E0B0000D2
:1016B000500D0000300D0000300D0000BC0D00008A
:1016C000420D00005E0D0000340D00006C0D0000A6
:1016D000AC0D0000F8B5C046F8BC08BC9E4670478B
:1016E000DD000000F8B5C046F8BC08BC9E46704757
:0416F000B500000041
:0816F40001000400DD0001000B
:04000003000012C126
:00000001FF
